S123C7007EC7217EC7037EC7477EC7857EC7957EC71F0C00000000C810C810000000003BDC
S123C720121A10BECC3110EF027DCC3426118ECCFC7CCC346D842707BFCC3110EE023B8ED3
S123C740CCF87FCC3420F11A107DC71B2729BEC719A6843402EC018ECAC0ED88403502A712
S123C760036F848601A7026F88226F883B7DC71E2729113F1220F61CEFAD9FD3ED7FCCFCBC
S123C780113F1220F41A107DCC302705113F1220F47CCC30397FCC301CEF397DC71D2627BC
S123C7A08ECAC0BDD406261F7DC71C270F7FC71C810A270F3402860A8D3C3502810D26034B
S123C7C0B7C71C8D3120D4860D8D2B860A8D27B6C7128D227FC71DBEC7196D0327056A0332
S123C7E07EC74730048CC84026038EC810BFC7197AC71B7EC747BDCCD82B05113F1220F6C2
S106C8007ECCE403
S113C840FF000000535441525455500054585400B2
S123CA002006BDCAAC39C0A08639B7D3FDBECC2B308900A1BFCA06AD9FD3F1BED3FBBFCD14
S123CA200ABFCD0DBED3F9BFCD10BFCD13BED3F7BFCD4F8E00A0C6B9A684E78412E1842648
S123CA400BA78430890400BCCA0626EC3089FF5FBFCC2B8ECD03BFCC168ECADCBDCE81BD78
S123CA60CEB58D9EBDCEB58EC8408601A784BDD4062708A601BDD2007ECD678EC080BFCC75
S123CA80148EC840BDD406270534307ED2D7BECC14A780810D26E78EC840BDD1F48EC08054
S123CAA0BFCC148ECD67BFCC437ED32E8ECAECBDCE81BDCE2B8D1425F3B7CC0E8D0D25ECC9
S123CAC0B7CC0F8D0625E5B7CC1039BDD175250BB6CC1C5D27031CFE391A01393638303981
S121CAE020464C45582056332E3031044441544520284D4D2C44442C5959293F20048B
S123CC0008183A190004400000FF1B0001000000000000000000000000000000000000003E
S11ECC200000000000000000000000BFFF000001000000000000000000000036
S104CC496086
S123CC4E2B2B2B043F3F3F04574841543F0443414E2754205452414E53464552044E4F543E
S123CC6E20464F554E44044449534B204552524F52202304445249564553204E4F54205296
S11DCC8E454144590447455400D20F4D4F4E00D34B00271003E80064000A08
S123CD007ECD577ECD677ECDB17ECD097ECD0C7ECD0F7ECD127ECEFB7ECF417ECE2B7ECEC5
S123CD20817ECFED7ECEB57ED00E7ECDEA7ED0367ED1A27ED0EB7ED3497ECF867ECFD47EE8
S123CD40D27F7ED12F7ECFD07ED1757ED3297ECD4E7ECE057ECE0510CEC07F7FCC11BDD460
S123CD60007FCC28BDD3FD10CEC07FBDDE188ECD03BFCC168EC700AF9FD3E9BED3E7AF9FBB
S123CD80D3EB8ECCF8BFCC317FCC347FCC4C8D5AB6CC11B1CC0226057CCC1520147DCC2887
S123CDA010260597BDD40326B28ECC4EBDCE818D7ABDD0D4810D27E58EC8407CCC0DBDD003
S123CDC03625168ECC938D3E2709BECC1227078D3526036E9801BDD22E8ECC568615B7CCAF
S123CDE020BDCE817FCC117ECD67BECD13BFCD10BECD0DBFCD0A7FCC237FCC227FCC217FC7
S123CE00CC267FCC2439108EC844A6A0815F23028020A18026086D8426F06DA4270C6D8058
S123CE2026FC30026D8426DE1CFB398EC080BFCC14BDCEFBB1CC01271DB1CC00271F810D4F
S123CE40270D810A2732811F23E78CC0FF27E2A780810D26DC398ECC528D2620CE8CC080AF
S123CE6027F4301FB6CC07810826088620BDCF66B6CC07BDCF6620B9860DBDCF41862020F2
S123CE80C98D32A6848104276FBDCF41300120F3BDCD4E2765AD9FD3E5B1CC0A265C7FCCF4
S123CEA01AAD9FD3E5B1CC0A2750810326F37FCC116E9FCC167DCC2126278DD4B6CC0327A6
S123CEC020B1CC1A22187FCC1A7DCC0927028DCE3404F6CC0827058D085A26FB35047CCC63
S123CEE01A860D8D5C860A8D583404F6CC0527064F8D4E5A26FA35041CFE397DCC23261A1B
S123CF007DCC2627108D1A7DCC2F27117DCC24270C8D532008BDCD092003BDCD0C7FCC1AB7
S123CF2039BFCC47BECC262006BFCC47BECC24BDD4062604BECC47397FCC24BDD27F7ECDF9
S123CF40037DCC212620811F22057FCC2920177CCC293402B6CC04270BB1CC292406BDCEEE
S123CF60B57CCC29350234027DCC2226137DCC2427048DB5200D7DCC262608BDCD0F200316
S123CF80BDCD123502397FCC4AF7CC1D8604B7CC4DEC848ECCA08D0B30027ACC4D26F71FAF
S123CFA098203D7FCC4B10A3842507A3847CCC4B20F43402B6CC4B26107DCC4A260B7DCC6B
S123CFC01D270B86208D2320057CCC4A8D1235828D023001A6848D04A684200444444444C2
S123CFE0840F8B30813923028B077ECF4181302514813923168141250C815A230E816125FD
S123D00004817A23061A01B7CC11391CFE393410BECC14B6CC18B7CC19A680B7CC18810D42
S123D0202710B1CC02270BBFCC1481202604A18427E78DB935908615A70186FFA7036F0477
S123D0406F0CBDD0D48608B7CC4B8D34252E260F8D2E25282609BCCC3F276C8D232368BEC1
S123D060CC3F6D0427616D032A0F7DCC0D2705B6CC0B2003B6CC0CA7037FCC0DBECC3F393B
S123D0808D8C254381392215BECC3F6D032A388403A703BDD00E242F812E1CFE39F6CC4B51
S123D0A02B253404C005F7CC4B3504B1CC4925028020A70430015ABDD00E2408812D270475
S123D0C0815F26065D26E41A01395D27CB6F0430015A20F6BFCC3FBECC14A68481202604C5
S123D0E0300120F6BFCC14BECC3F393430E60C2618108ED10B810B2210C6033D31A5C603D3
S123D100A6A0A70C30015A26F735B042494E545854434D4442415353595342414B5343524D
S123D1204441544241434449525052544F5554BDD21EBDD00E25228D2625183404C6047886
S123D140CC1C79CC1B5A26F73504BBCC1CB7CC1C5C20DFBDD00E24FB39BECC1B1CFE3980CB
S123D160472A0F8B062A048B072A078B0A2B031CFE391A0139BDD21EBDD00E25DC8139221A
S123D180D2840F34043402FCCC1B584958495849F3CC1BF3CC1BEBE08900FDCC1B35045C71
S123D1A020D67FCC1D8D3D81022715811626F68D33B7CC1E8D2EB7CC1F8601B7CC1D20E5E7
S123D1C08D221F898D1E1E89F3CC1BFDCC3D8D141F894D27D08D0DBECC3DA780BFCC3D5A8B
S123D1E026F320C18EC840BDD4062711A6018108260E32628604A784BDD406260D1CFE3902
S123D200B7CC20810426031A01398D737ECDE486008D35250F8D077CCC4C8D8620F14F5FC0
S123D220FDCC1B39F6CC4C1027FBAE7ECD0386028D228DEABDD1A2F6CC1D27046E9FCC1EB2
S123D2408ECC5C86817ECDDE34028EC840BDD0363502251A8EC840BDD0EB8EC8408601A70D
S123D26084BDD1E4102500BB86FFA7883B39B6CC11810D2707B1CC021026FB5D1A013934B8
S123D28030A601B7CC202763BDCDEA10BECC2D260881102758108ED3618EC8406D02270906
S123D2A08604A784BDD406262E8EC838C60B8D6E8EC840B6CC0BA7038601A784BDD4062634
S123D2C016B6CC204A47474C6F8820A788218615A784BDD406271E8ECC75BDCE81BECC3FC1
S123D2E0B6CC20A7016F845FBDCF8635B08ECC82BDCE8120F6BDCEB58EC840B6CC204A8453
S123D30003C63F3DCB04E78822BDD40626C9BDCF41810D26F48604A784BDD40620CD3430CC
S123D3207ED1008ECC6B7ECDE13506FDCC4310FFCC457FCC207CCC287ECDB87FCC2810FEE3
S123D340CC45F6CC206E9FCC433A397DCCFC26046E9FD3F38EC840861BA701BDD27F7ECDCD
S10FD360674552524F525300005359537A
S106CCC07ED370AC
S106CCD87ED37094
S106CCE47ED37088
S10BCCF801000000000000002F
S11BD370397ED3706E9FF8046E9FF8006E9FF8086E9FF80A6E9FF80672
S123D3E5D374D370DFC2DFC8D370D370D370D378D371D37CD380D3847ECA007ED4367ED4DF
S123D405597ED47B204449534B204F5045524154494E472053595354454D20434F50595217
S123D4254947485420284329203139383020425920544543484E4943414C205359535445F3
S111D4454D5320434F4E53554C54414E5453B7
S123D435FFBDDE158ED409C60A8D118E0005BFD413BFD4157FD41A8ED41BC61A6F805A2631
S123D455FB7EC70CBDC709BED40927EB3088E4BFD40B3420BDDAC3352024ECBED40B6F02D2
S123D475BDC70CC6FF397DCCFC2703BDC7093424BFD40B6F01E6842622E602271AC10227DE
S123D49511BDD5B4BED40B25267DCCFC26235F352439BDD6CF20EDC6122014C1162304C676
S123D4B501200C5A588ED4CEAD95BED40B2402E701BDC70C6D01352439D986D9D9DAF9DA09
S123D4D5C3D5E2D81DD838D876D641D69FD969DBD6DB2CD699DA87D810D56FD590DB07DDC0
S123D4F5BDDCFBDCE58D202605C6021A0139ED84AE846F846F01398D0E2705C60D1A01399D
S123D515EC94ED841CFE39FCD40BC3001C8ED40910AE8426031CFB3910A384260139AE8405
S123D53520EEBED40B4F5F8D02C62FA7881130015A26F839BED40BC60BA604A78824300137
S123D5555A26F639BED40BC60BA6043402A68824A1E0260530015A26F039BED40BE6025404
S123D5752479E688237ED600BED40BE688226C88223AA788405C261F1A0139BED40BE602AA
S123D595C403C1032655CA80E702E60FC580260AE688233AA788401CFE39C60B1A0139A677
S123D5B5883B2B3C27076A883B8620201D8D31251B8118221527F68109260C8D23250DBEA3
S123D5D5D40BA7883B20D84D27E31CFE39BDDAB1250985012705A7847ED9A0C6121A0139D1
S123D5F5BED40BE68822270A6C88223AA688401CFE398D0324EA39BED40BEC88406C882166
S123D61526036C882010830000271CED881E34028604A7882235028D132410C5802704C6F9
S123D635102006C6092002C6081A01398D25BED40BBDDE0C25128D11BDDE0026031CFE39A6
S123D65534048D17350424EE39BED40BEC881E308840394FB7D411B7D41239C5102611C55F
S123D675802624F6D4115CC1072705F7D41120147FD411F6D4125CC104270CF7D412BED489
S123D6950BBDDE091CFE391A01398DC7BED40BBDDE0C2520BED40B8DB0BDDE03260AB6D40C
S123D6B5352737BDDE062732C540260B34048DAB350424E039C6201A0139BED40BE6883B28
S123D6D52B3D8120260F5CE7883BC17F260C200D8D0B24E6395D272720F61CFE393402C168
S123D6F50126048620201086098D143502250F3402BED40BA6883B6F883B8D03350239BE49
S123D715D40BE602C1021026FED1E68822C104260834028D213502250FBDD57D240AC60488
S123D735BED40BE788221CFE39BED40B4F5FED8820ED88422027E688122622E688172744B9
S123D7556F88178D3F252A8DE025268DDC2522BED40BC602E78817EC88117EDC828D0EBE7A
S123D775D40BED8840BDD69F241A7EDBC18D03EC8439BED40BE60386063D8ED41D3ABFD49E
S123D7951B6D84398DE72605C6071A0139BED40BED88136D88122603ED88116C881626035D
S123D7B56C88156D8817270BBDDC4325DDBED40BEC8813BDD62025D2BED40BEC88403406D2
S123D7D58DB03506ED84260A6F026F036F046F05200810AE04313F10AF044FBED40B6C8850
S123D7F52126036C88205FA7884030015A26F8BED40BEC8820ED88421CFE395F3404C603A0
S123D815200EBED415BFD413F6D4133404F6D414BED40BE788413504E788407FD4185FE79B
S123D835882239BED40BE68822261DBDD60C2530BED40B7DD4182605DC44FDD4188610A711
S123D8558822EC881EED882FA68822A78831C6183414BDD5F53514A70430015A26F21CFEC1
S123D87539BED40BA68831A78822C6183414A604BDD714351430015A26F27ED69FBED40B15
S123D895A603A78823B6D4177DD41A2631A703BED415BFD4138C0005270C8D222337BED4BB
S123D8B518BFD41320EFBED40BA68823A7032A0EBDDDBD25368D07231CBDDDAD20F2BED442
S123D8D50B7FD41ABDD549BDD81DBDD8382407C10827181A0139BED40BA604270C2A028DA3
S123D8F50FBDD55926E41CFE398D051CFB1CFE39A68833260CEC882FED8832A68831A78851
S123D9153439BDD78726178D182515C60610BED40BBED41BA6A85D3121A7805A26F61CFE70
S123D93539BDD810BDD60C2508BED40BC610E7882239BDD7878DEA25F8C60610BED40BBE01
S123D955D41BA680A7A85D31215A26F6BDD69F24E07EDBC1BED40B8602A702EC882FED88EF
S123D9751EBDD6412508BDD87624057EDBC1C60A39BDD4FA253DBDD8922538263BBED40BA9
S123D9957DD41A2706A60F85202629BDDCC0252AEC8811ED8840BDDA76E688172713340447
S123D9B5BDD60C3504250C5A26F4BED40B5FE788221CFE39C6112002C6043404BDD50C3523
S123D9D5041A0139BED40B6D032A08BDDDBD2403C61039BDD4FA25E2BDD537BDD91725DA03
S123D9F5BDD89225D52604C60320CFBDDCC025CABED40BC60A6F0F30015A26F9BED40BECA5
S123DA1588322727ED882FA68834A78831FCCC0EED8819B6CC10A7881BBDDDADBDD96925D4
S123DA35998D3E8604A788221CFE39BED40B6F88176C8812EC882FBDD620250DBDD77225D7
S123DA5508BDD69F2406BDDBC17ED9CFBED40BEC881EED88328610A78834BDD94725EA20EF
S123DA758ABED40BA684A7026F846F883B4FA78822398D28250E6F84441025FB7AC604E71B
S123DA9588221CFE39BED40BA6028183260B8603A702BDD69F102501131CFE398DE7250D50
S123DAB5BED40BA602810323F0C6121A01398DEC253181022708BED40B6F027ED50CA68829
S123DAD5122605BDDBA720198DC82517BED40B6D88172705BDDC98250ABDD9692505BDD9F3
S123DAF54724D339BDD9862528BDD60C252386032018BDD986251ABED40BA60F858026129B
S123DB15EC8813BDD62025098602BED40BA7021CFE39C60B1A01398D35BDD892252A2724BB
S123DB35BED40BC60BA68824A70430015A26F68D4D2515BED40BA60F858026D6856026093F
S123DB558D0C2055C6031A0139C60C1A0139BED40B860BB7D411A604E68835A78835E704F5
S123DB7530017AD41126EFBED40BA60C260CC603A6883DA70C30015A26F6BED40B398DCEA7
S123DB95BDD89225072606BED40B1CFE39C6041A0139BED40B86FFA704BDD969BED40B86F0
S123DBB500A70239ED8840BDD69F2414C5402608C580270AC6102006C60B2002C60A1A01C8
S123DBD539BDD917255E8DB8255ABED40BA60F8580265285602652BDD787BED41BEC0226F7
S123DBF50FBED40BEC88112733BED41BED842014BED40BBDD620252CBED40BEC8811271C29
S123DC158DA22520BED40BEC8813BED41BED02BED40BEC8815BED41BE304ED04BDDBA725A8
S123DC3503BDD94739C60B2002C60C1A0139EC881E5CE1883C2303C6014C10A38813260E4B
S123DC55A6883781FF27074CA788371CFE398D332530BED40BA6883A8B032616EC881E100D
S123DC75A388112705C6171A0139EC8840ED88388604A7883AEC8813ED88358601A7883780
S123DC951CFE39EC8838BDD62025F7BED40B1F12E6883A3AC603A6A8353121A788403001AF
S123DCB55A26F3BDD69F24DA7EDBC1BDD810BDD60C2546BED40B4F5FED8820A68867A7883B
S123DCD53C5F6F884030015A26F8BED40B1CFE39BED40BA68817271DEC88208300012A0355
S123DCF57EDD9AED8820BDDAB1250E4624076F84A688172605C6121A01397FD411EC88111D
S123DD1510AE8820276ABDDD9F25EE4F5F6D022774EB028900BFD40FBED40B10A3882024BB
S123DD352CBED40F30033402B6D4114CB7D4118154270881A83502274C20D23404BED40B73
S123DD55EC88408D45253E3504350220C0A38820BED40FA6023404A0E04A1F89A684EB011D
S123DD75BED40B2505E1883C2306E0883C4C20F5BDD6202514BED40BEC884210A38820272F
S123DD9514C6192002C6181A0139BDD6202508BED40BC6443A1CFE39BED40BC60BA688244F
S123DDB5A70430015A26F639BED40BA6034C8104240FA7032605BDDE0F2003BDDE1225E819
S109DDD539C6101A0139E1
S123DE007EF0577EF05B7EF05F7EF0637EF06C7EF09F7EF0A37EF0A77EF0BF7EF0C3000067
S115DE2000000000000000000000000102031040FFFF98
S123F000F7BDF119F141F13FF13FF13FF13FF13FF052F052F052F119F141F13FF13FF13F7A
S123F020F13FF13FF052F052F052F052F052F052F052F052F052F052F052F052F052F17AA7
S123F040F1E9F249F24EF24EF24EF24EF052F052F0525F5D1CFE396E9FDE326E9FDE346E18
S123F0609FDE368D072701396E9FDE383430E603F7DE1E8EDE2AA68581FF26083530C60FD8
S123F0805D1A0139C6143D8EF002308B108EDE32C614A680A7A05A26F935306E9FDE3A6E03
S123F0A09FDE3C6E9FDE3E4FB7DE1E8EDE1B8DBC2504AD9FDE40B6DE1E4C810426EA396ECB
S123F0C09FDE426E9FDE441FA8B7DE221A50CEDE2AF6DE1EE6C5CEDE2EB6DE1FABC584F072
S123F0E0A7E2B6DE208001880F840FABE0B7FFF0B6DE1F840F8B005F1F03398600880FB794
S123F100FFF0B6DE221F8A39B7DE1FF7DE201CFE1A0439C6405D1A0139347017FFEA17FFD9
S123F120A6108EDE465FA6C0A7A05A26F917FFCB108EDE465FA6A0A7805A26F95F35F05F13
S123F14039347017FFC2CEDE2AF6DE1EE6C5C1012707C100270316FFBA108EDE465FA68092
S123F160A7A05A26F917FF5F108EDE465FA6A0A7C05A26F917FF845F35F0340434027FDE26
S123F180217FDE228673BDF285244CB6DE1EBDF28524443502BDF285243D3502BDF2852485
S123F1A0365FBDF2672430A780BBDE22B7DE2224037CDE215A26EBBDF267241B3402BDF26C
S123F1C06724141F89350210B3DE21260E8606BDF28524035F200DC61020098615BDF28576
S123F1E024F5C609F7DE215D39340434027FDE217FDE228672BDF28524DDB6DE1EBDF28519
S123F20024D53502BDF28524CE3502BDF28524C75FA680BDF28524BFBBDE22B7DE22240309
S123F2207CDE215A26EBB6DE21BDF28524A9B6DE22BDF28524A1BDF267249C810626035F9A
S123F2402002C60AF7DE215D39F6DE215D398651BDF285240CBDF2672407810626035F20F6
S123F26004C6101A015D3934308E03E8108E04E2B6E00047250A313F26F6301F26EE35B0BE
S123F280B6E00135B0343034028E03E8108E04E2B6E0004747250C313F26F5301F26ED35E0
S123F2A00235B03502B7E00135B00A0D466F726D6174696E672052414D6469736B2E2E2EBC
S123F2C020040A0D0452616D6469736B206E6F7420616C6C6F63617465642120048EF2AA77
S123F2E0BDF46A8EDE2A5FA6858101270C5CC10426F58EF2C2BDF46A39F7DE1E8EDE1BBD11
S123F300F06C8EDE464F5FA7805A26FB7FDE1F8601B7DE208EDE46B6DE1FA784B6DE204C43
S123F320810F26046C848601A701B6DE1FF6DE20BDF05B7CDE20B6DE20810F26D78601B748
S123F340DE207CDE1FB6DE1F814026C88EDE46863FC60EBDF0578EDE466F846F01863FC6E1
S123F3600EBDF05B8EDE464FC60EBDF0578EDE466F846F014FC60EBDF05B8EDE464FC60390
S123F380BDF0578EDE466F846F01CC5241ED8810CC4D44ED8812CC4953ED8814CC4B20ED73
S123F3A08816CC0001ED881BCC0101ED881D863FC60EED881FED8826CC0372ED88218601C8
S123F3C0A788238607A788248607A788254FC603BDF05B8EDE464FC601BDF0578EDE4686F2
S123F3E0AAA7848655A7014FC6017EF05B0808426F6F74696E6720696E7465726E616C2053
S123F400464C45582E2E2E2E0D0A048EF3EDBDF46A8ED3E5108EF434ECA1ED818CD3FD26D4
S123F420F78EDE00108EF44CECA1ED818CDE1E26F77ECD00F476F482DFC2DFC8F482F48288
S123F440F482F47EF482F47AF46EF4727EF0577EF05B7EF05F7EF0637EF06C7EF09F7EF093
S123F460A37EF0A77EF0BF7EF0C36E9FF80C6E9FF80A6E9FF8066E9FF8046E9FF8086E9F24
S123F480F8003953657269616C20524F4D204469736B2075706C6F6164202E2E2E0D0A04B4
S123F4A0524F4D204469736B204C6F616465640D0A048EF483BDF46A8600B7DE1E4FC601BC
S123F4C0B7DE1FF7DE2017FBFE5FBDF4EDA7C05A26F817FC26B6DE1FF6DE205CC10F26E081
S123F4E0C6014C813026D98EF4A07EF46A34048D0E484848481F898D063404ABE03584BDE0
S123F500F52829FB80302BF781092F0A81112BEF81162EEB800739B6E0008501398603B760
S123F520E0008611B7E000398610B7DE277FDE287FDE29B6E000850126088578270A8DDD41
S123F54020E6B6E0011C02397ADE2926E67ADE2826E17ADE2726DC4F1A02393402B6E000AE
S123F56085022608857827F58DB320F13502B7E001390D0A586D6F64656D20524F4D20446D
S123F58069736B2055706C6F6164040D0A55706C6F616420436F6D706C657465040D0A5552
S123F5A0706C6F6164204572726F72048EF57217FEB88601B7DE238EF61ABFDE258600B76B
S123F5C0DE1E4FC601B7DE1FF7DE2017FAF95F17002B2520A7C05A26F617FB1FB6DE1FF6C5
S123F5E0DE205CC10F26DEC6014C813026D78EF58B7EF46A17FB048EF59D16FE6D3410BE75
S123F600DE2517FF23280A861517FF4F8EF61A20F1AD8426EDBFDE253590810126068EF6CC
S123F6203A1CFA3981042608860617FF2E1A0539811826031A05391CFA39B1DE2326068E8D
S123F640F6501CFA39861517FF118EF61A1CFA3943B1DE2326EF7FDE218680B7DE248EF697
S123F660641CFA393402BBDE21B7DE2135027ADE2426038EF67B1CFE1A0439B1DE21260704
S123F6807CDE238606200D34041F305AC4801F033504861517FEC48EF61A1CFA3908084CF3
S123F6A06F616420524F4D206469736B2066726F6D20636F6E6669672050524F4D2E0446F9
S123F6C06F756E642053594E432C206C6F6164696E6720646174612E2E2E0A0D04524F4D9C
S123F6E0204469736B204C6F616465642E0A0D04524F4D204469736B204E6F7420466F7575
S123F7006E642E0A0D048EF69DBDF46A8D5A108E00208E00008D6C8D7C2715301F8C000042
S123F72026F3311F108C000026EB8EF6F07EF46A8EF6BFBDF46A4FB7DE1EC601B7DE1FF78D
S123F740DE2017F9825F8D67A7C05A26F917F9ABB6DE1FF6DE205CC10F26E1C6014C813089
S123F76026DA8EF6DD7EF46A8602B7E0C08600B7E0C08E0000301F8C000026F9BFDF46BF61
S123F780DF48398601B7E0C08600B7E0C0B6E0C04478DF493979DF4879DF4779DF46CCFF2F
S123F7A00010B3DF482607CCAA5510B3DF46393404C6088DCE5A26FBB6DF49358417FCB20A
S123F7C0847F1F89862017FCA5C1602F02C0208EF7E5E180270D30028CF7F426F58EF7F4AE
S120F7E016FC876E9442F40B4CF4B246F2DD50F70658F5AC57484154203F0A0D0431
S9030000FC
