S00600004844521B
S113000000000000000000000000000000000000EC
S113001000000008080808080008000000000000AC
S11300200000001414140000000000000000000090
S113003000000014143E143E1414000000000000DC
S1130040000000081E281C0A3C08000000000000F4
S113005000000030320408102606000000000000F2
S1130060000000102828102A241A000000000000B4
S1130070000000080810000000000000000000005C
S11300800000000408101010080400000000000024
S11300900000001008040404081000000000000020
S11300A000000000082A1C1C2A08000000000000B0
S11300B00000000008083E080800000000000000DE
S11300C000000000000000001010200000000000EC
S11300D00000000000003E000000000000000000DE
S11300E00000000000000000000800000000000004
S11300F000000000020408102000000000000000BE
S11301000000001C22262A32221C000000000000ED
S11301100000000818080808081C0000000000007F
S11301200000001C22021C20203E000000000000F1
S11301300000001C22020402221C00000000000037
S1130140000000040C14243E04040000000000001D
S11301500000003E203C0202221C000000000000BF
S11301600000001C20203C22221C00000000000093
S11301700000003E020408102020000000000000DF
S11301800000001C22221C22221C0000000000008F
S11301900000001C22221E02021C000000000000BD
S11301A0000000000008000008000000000000003B
S11301B00000000000080000080810000000000013
S11301C000000004081020100804000000000000D3
S11301D000000000003E003E00000000000000009F
S11301E000000010080402040810000000000000D1
S11301F00000001C220204080008000000000000A7
S11302000000001C22021A26261C00000000000028
S1130210000000081422223E2222000000000000F8
S11302200000003C12121C12123C000000000000EE
S11302300000001C22202020221C000000000000DE
S11302400000003C12121212123C000000000000D8
S11302500000003E20203820203E00000000000066
S11302600000003E20203820202000000000000074
S11302700000001C22202026221C00000000000098
S11302800000002222223E22222200000000000060
S11302900000001C08080808081C000000000000FA
S11302A00000000202020202221C00000000000002
S11302B0000000222428302824220000000000002E
S11302C00000002020202020203E0000000000002C
S11302D000000022362A2A22222200000000000008
S11302E00000002222322A26222200000000000000
S11302F00000001C22222222221C00000000000018
S11303000000003C22223C202020000000000000CD
S11303100000001C2222222A241A000000000000EF
S11303200000003C22223C2824220000000000009F
S11303300000001C22201C02221C000000000000FF
S11303400000003E0808080808080000000000003B
S11303500000002222222222221C000000000000B1
S113036000000022222214140808000000000000EB
S1130370000000222222222A36220000000000006F
S113038000000022221408142222000000000000B1
S113039000000022221408080808000000000000E1
S11303A00000003E02040810203E0000000000008F
S11303B00000001C10101010101C000000000000B1
S11303C000000000201008040200000000000000EB
S11303D00000001C04040404041C000000000000CD
S11303E0000000081C2A080808080000000000009B
S11303F00000000008103E1008000000000000008B
S9030000FC
